{"abi":[{"type":"constructor","inputs":[{"name":"_subscriptionId","type":"uint64","internalType":"uint64"}],"stateMutability":"nonpayable"},{"type":"function","name":"_games","inputs":[{"name":"","type":"uint256","internalType":"uint256"}],"outputs":[{"name":"id","type":"uint256","internalType":"uint256"},{"name":"bets","type":"uint256","internalType":"uint256"},{"name":"amount","type":"uint256","internalType":"uint256"},{"name":"winnerTeam","type":"uint256","internalType":"uint256"},{"name":"title","type":"string","internalType":"string"},{"name":"startTime","type":"uint256","internalType":"uint256"},{"name":"endTime","type":"uint256","internalType":"uint256"},{"name":"isStarted","type":"bool","internalType":"bool"},{"name":"isEnded","type":"bool","internalType":"bool"},{"name":"status","type":"string","internalType":"string"}],"stateMutability":"view"},{"type":"function","name":"acceptOwnership","inputs":[],"outputs":[],"stateMutability":"nonpayable"},{"type":"function","name":"checkUpkeep","inputs":[{"name":"","type":"bytes","internalType":"bytes"}],"outputs":[{"name":"upkeepNeeded","type":"bool","internalType":"bool"},{"name":"performData","type":"bytes","internalType":"bytes"}],"stateMutability":"view"},{"type":"function","name":"createGame","inputs":[],"outputs":[],"stateMutability":"nonpayable"},{"type":"function","name":"getBetPrice","inputs":[{"name":"gameId","type":"uint256","internalType":"uint256"}],"outputs":[{"name":"","type":"uint256","internalType":"uint256"}],"stateMutability":"view"},{"type":"function","name":"getGames","inputs":[],"outputs":[{"name":"","type":"tuple[]","internalType":"struct SportBet.Game[]","components":[{"name":"id","type":"uint256","internalType":"uint256"},{"name":"bets","type":"uint256","internalType":"uint256"},{"name":"amount","type":"uint256","internalType":"uint256"},{"name":"winnerTeam","type":"uint256","internalType":"uint256"},{"name":"title","type":"string","internalType":"string"},{"name":"startTime","type":"uint256","internalType":"uint256"},{"name":"endTime","type":"uint256","internalType":"uint256"},{"name":"isStarted","type":"bool","internalType":"bool"},{"name":"isEnded","type":"bool","internalType":"bool"},{"name":"status","type":"string","internalType":"string"}]}],"stateMutability":"view"},{"type":"function","name":"getWinners","inputs":[{"name":"gameId","type":"uint256","internalType":"uint256"}],"outputs":[{"name":"","type":"address[]","internalType":"address[]"}],"stateMutability":"view"},{"type":"function","name":"handleOracleFulfillment","inputs":[{"name":"requestId","type":"bytes32","internalType":"bytes32"},{"name":"response","type":"bytes","internalType":"bytes"},{"name":"err","type":"bytes","internalType":"bytes"}],"outputs":[],"stateMutability":"nonpayable"},{"type":"function","name":"lastTime","inputs":[],"outputs":[{"name":"","type":"uint256","internalType":"uint256"}],"stateMutability":"view"},{"type":"function","name":"owner","inputs":[],"outputs":[{"name":"","type":"address","internalType":"address"}],"stateMutability":"view"},{"type":"function","name":"performUpkeep","inputs":[{"name":"performData","type":"bytes","internalType":"bytes"}],"outputs":[],"stateMutability":"nonpayable"},{"type":"function","name":"placeBet","inputs":[{"name":"bet","type":"tuple","internalType":"struct SportBet.Bet","components":[{"name":"gameId","type":"uint256","internalType":"uint256"},{"name":"team","type":"uint256","internalType":"uint256"},{"name":"user","type":"address","internalType":"address"}]}],"outputs":[],"stateMutability":"payable"},{"type":"function","name":"sLastRequestIdCreate","inputs":[],"outputs":[{"name":"","type":"bytes32","internalType":"bytes32"}],"stateMutability":"view"},{"type":"function","name":"sLastRequestIdUpdate","inputs":[],"outputs":[{"name":"","type":"bytes32","internalType":"bytes32"}],"stateMutability":"view"},{"type":"function","name":"transferOwnership","inputs":[{"name":"to","type":"address","internalType":"address"}],"outputs":[],"stateMutability":"nonpayable"},{"type":"event","name":"BitPlaced","inputs":[{"name":"","type":"uint256","indexed":false,"internalType":"uint256"},{"name":"","type":"address","indexed":false,"internalType":"address"}],"anonymous":false},{"type":"event","name":"OwnershipTransferRequested","inputs":[{"name":"from","type":"address","indexed":true,"internalType":"address"},{"name":"to","type":"address","indexed":true,"internalType":"address"}],"anonymous":false},{"type":"event","name":"OwnershipTransferred","inputs":[{"name":"from","type":"address","indexed":true,"internalType":"address"},{"name":"to","type":"address","indexed":true,"internalType":"address"}],"anonymous":false},{"type":"event","name":"RequestFulfilled","inputs":[{"name":"id","type":"bytes32","indexed":true,"internalType":"bytes32"}],"anonymous":false},{"type":"event","name":"RequestSent","inputs":[{"name":"id","type":"bytes32","indexed":true,"internalType":"bytes32"}],"anonymous":false},{"type":"error","name":"EmptyArgs","inputs":[]},{"type":"error","name":"EmptySource","inputs":[]},{"type":"error","name":"NoInlineSecrets","inputs":[]},{"type":"error","name":"OnlyRouterCanFulfill","inputs":[]},{"type":"error","name":"UnexpectedRequestID","inputs":[{"name":"requestId","type":"bytes32","internalType":"bytes32"}]}],"bytecode":{"object":"0x6064600855600b80546001600160a01b03191673c22a79eba640940abb6df0f7982cc119578e11de17905561024060405261017c60a0818152906130b360c039600c9061004c90826102d5565b50604051806101c00160405280610190815260200161322f6101909139600d9061007690826102d5565b50600e805463ffffffff1916620493e01790557166756e2d706f6c79676f6e2d616d6f792d3160701b600f553480156100ae57600080fd5b506040516133bf3803806133bf8339810160408190526100cd91610394565b600b546001600160a01b031660805233806000816101325760405162461bcd60e51b815260206004820152601860248201527f43616e6e6f7420736574206f776e657220746f207a65726f000000000000000060448201526064015b60405180910390fd5b600080546001600160a01b0319166001600160a01b0384811691909117909155811615610162576101628161018b565b5050600680546001600160401b0319166001600160401b039390931692909217909155506103c4565b336001600160a01b038216036101e35760405162461bcd60e51b815260206004820152601760248201527f43616e6e6f74207472616e7366657220746f2073656c660000000000000000006044820152606401610129565b600180546001600160a01b0319166001600160a01b0383811691821790925560008054604051929316917fed8889f560326eb138920d842192f0eb3dd22b4f139c87a2c57538e05bae12789190a350565b634e487b7160e01b600052604160045260246000fd5b600181811c9082168061025e57607f821691505b60208210810361027e57634e487b7160e01b600052602260045260246000fd5b50919050565b601f8211156102d0576000816000526020600020601f850160051c810160208610156102ad5750805b601f850160051c820191505b818110156102cc578281556001016102b9565b5050505b505050565b81516001600160401b038111156102ee576102ee610234565b610302816102fc845461024a565b84610284565b602080601f831160018114610337576000841561031f5750858301515b600019600386901b1c1916600185901b1785556102cc565b600085815260208120601f198616915b8281101561036657888601518255948401946001909101908401610347565b50858210156103845787850151600019600388901b60f8161c191681555b5050505050600190811b01905550565b6000602082840312156103a657600080fd5b81516001600160401b03811681146103bd57600080fd5b9392505050565b608051612ccd6103e6600039600081816102f70152611ba00152612ccd6000f3fe6080604052600436106100e85760003560e01c80637255d7291161008a578063c04c594711610059578063c04c594714610264578063e521d37414610286578063e9e6ab111461029c578063f2fde38b146102cc57600080fd5b80637255d729146101fc57806379ba5097146102115780638da5cb5b1461022657806393e9a0841461024e57600080fd5b80634585e33b116100c65780634585e33b1461016e5780636b1426a41461018e5780636bfd70cc146101bb5780636e04ff0d146101ce57600080fd5b80630ca76175146100ed5780632c66c46a1461010f57806341eb8b8b14610138575b600080fd5b3480156100f957600080fd5b5061010d6101083660046123e5565b6102ec565b005b34801561011b57600080fd5b50610125600a5481565b6040519081526020015b60405180910390f35b34801561014457600080fd5b50610158610153366004612451565b610370565b60405161012f9a999897969594939291906124ba565b34801561017a57600080fd5b5061010d610189366004612529565b6104de565b34801561019a57600080fd5b506101ae6101a9366004612451565b610580565b60405161012f919061259a565b61010d6101c93660046125e7565b6105ec565b3480156101da57600080fd5b506101ee6101e9366004612529565b6107a2565b60405161012f9291906125f9565b34801561020857600080fd5b5061010d610cc6565b34801561021d57600080fd5b5061010d610cd8565b34801561023257600080fd5b506000546040516001600160a01b03909116815260200161012f565b34801561025a57600080fd5b5061012560075481565b34801561027057600080fd5b50610279610d82565b60405161012f919061261c565b34801561029257600080fd5b5061012560095481565b3480156102a857600080fd5b506101256102b7366004612451565b60009081526003602052604090206002015490565b3480156102d857600080fd5b5061010d6102e736600461271f565b611012565b336001600160a01b037f000000000000000000000000000000000000000000000000000000000000000016146103355760405163c6829f8360e01b815260040160405180910390fd5b610340838383611026565b60405183907f85e1543bf2f84fe80c6badbce3648c8539ad1df4d2b3d822938ca0538be727e690600090a2505050565b60036020528060005260406000206000915090508060000154908060010154908060020154908060030154908060040180546103ab9061273c565b80601f01602080910402602001604051908101604052809291908181526020018280546103d79061273c565b80156104245780601f106103f957610100808354040283529160200191610424565b820191906000526020600020905b81548152906001019060200180831161040757829003601f168201915b505050506005830154600684015460078501546008860180549596939592945060ff80831694610100909304169261045b9061273c565b80601f01602080910402602001604051908101604052809291908181526020018280546104879061273c565b80156104d45780601f106104a9576101008083540402835291602001916104d4565b820191906000526020600020905b8154815290600101906020018083116104b757829003601f168201915b505050505090508a565b6008546007546104ee9042612786565b111561057c574260075560008061050783850185612818565b9150915060005b82518110156105415761053983828151811061052c5761052c61287b565b6020026020010151611221565b60010161050e565b5060005b8151811015610578576105708282815181106105635761056361287b565b602002602001015161122a565b600101610545565b5050505b5050565b6000818152600460209081526040918290208054835181840281018401909452808452606093928301828280156105e057602002820191906000526020600020905b81546001600160a01b031681526001909101906020018083116105c2575b50505050509050919050565b8035600090815260036020526040812060020154900361064c5760405162461bcd60e51b815260206004820152601660248201527553706f72744265743a20496e76616c69642067616d6560501b60448201526064015b60405180910390fd5b80356000908152600360205260409020600201543410156106af5760405162461bcd60e51b815260206004820152601c60248201527f53706f72744265743a20496e76616c69642062657420616d6f756e74000000006044820152606401610643565b60028160200135106106fc5760405162461bcd60e51b815260206004820152601660248201527553706f72744265743a20496e76616c6964207465616d60501b6044820152606401610643565b8035600090815260026020908152604082208054600181018255908352912082916003020161072b8282612891565b50508035600090815260036020526040902060019081015461074c916128d0565b813560008181526003602090815260409182902060010193909355805191825233928201929092527fb13c8068a563f07a05cdbcc5ddfd379aed575b15298c0439f5b4b5ad50edefb7910160405180910390a150565b60006060600854600754426107b79190612786565b10156107c65760009150610cbf565b60006005546001600160401b038111156107e2576107e2612322565b60405190808252806020026020018201604052801561080b578160200160208202803683370190505b50905060006005546001600160401b0381111561082a5761082a612322565b604051908082528060200260200182016040528015610853578160200160208202803683370190505b509050600080945060005b600554811015610a6f5760006003816108788460016128d0565b815260200190815260200160002060405180610140016040529081600082015481526020016001820154815260200160028201548152602001600382015481526020016004820180546108ca9061273c565b80601f01602080910402602001604051908101604052809291908181526020018280546108f69061273c565b80156109435780601f1061091857610100808354040283529160200191610943565b820191906000526020600020905b81548152906001019060200180831161092657829003601f168201915b50505091835250506005820154602082015260068201546040820152600782015460ff80821615156060840152610100909104161515608082015260088201805460a0909201916109939061273c565b80601f01602080910402602001604051908101604052809291908181526020018280546109bf9061273c565b8015610a0c5780601f106109e157610100808354040283529160200191610a0c565b820191906000526020600020905b8154815290600101906020018083116109ef57829003601f168201915b50505050508152505090508060e00151158015610a2d57508060a001514210155b15610a66578060000151858481518110610a4957610a4961287b565b602090810291909101015282610a5e816128e3565b935050600196505b5060010161085e565b506000905060005b600554811015610c96576000600381610a918460016128d0565b81526020019081526020016000206040518061014001604052908160008201548152602001600182015481526020016002820154815260200160038201548152602001600482018054610ae39061273c565b80601f0160208091040260200160405190810160405280929190818152602001828054610b0f9061273c565b8015610b5c5780601f10610b3157610100808354040283529160200191610b5c565b820191906000526020600020905b815481529060010190602001808311610b3f57829003601f168201915b50505091835250506005820154602082015260068201546040820152600782015460ff80821615156060840152610100909104161515608082015260088201805460a090920191610bac9061273c565b80601f0160208091040260200160405190810160405280929190818152602001828054610bd89061273c565b8015610c255780601f10610bfa57610100808354040283529160200191610c25565b820191906000526020600020905b815481529060010190602001808311610c0857829003601f168201915b50505050508152505090508060e001518015610c445750806101000151155b8015610c5457508060c001514210155b15610c8d578060000151848481518110610c7057610c7061287b565b602090810291909101015282610c85816128e3565b935050600196505b50600101610a77565b508282604051602001610caa929190612938565b60405160208183030381529060405293505050505b9250929050565b610cce6115f3565b610cd6611646565b565b6001546001600160a01b03163314610d2b5760405162461bcd60e51b815260206004820152601660248201527526bab9ba10313290383937b837b9b2b21037bbb732b960511b6044820152606401610643565b60008054336001600160a01b0319808316821784556001805490911690556040516001600160a01b0390921692909183917f8be0079c531659141344cd1fd0a4f28419497f9722a3daafe3b4186f6b6457e091a350565b606060006005546001600160401b03811115610da057610da0612322565b604051908082528060200260200182016040528015610e2b57816020015b610e1860405180610140016040528060008152602001600081526020016000815260200160008152602001606081526020016000815260200160008152602001600015158152602001600015158152602001606081525090565b815260200190600190039081610dbe5790505b50905060005b60055481101561100c5760036000610e4a8360016128d0565b81526020019081526020016000206040518061014001604052908160008201548152602001600182015481526020016002820154815260200160038201548152602001600482018054610e9c9061273c565b80601f0160208091040260200160405190810160405280929190818152602001828054610ec89061273c565b8015610f155780601f10610eea57610100808354040283529160200191610f15565b820191906000526020600020905b815481529060010190602001808311610ef857829003601f168201915b50505091835250506005820154602082015260068201546040820152600782015460ff80821615156060840152610100909104161515608082015260088201805460a090920191610f659061273c565b80601f0160208091040260200160405190810160405280929190818152602001828054610f919061273c565b8015610fde5780601f10610fb357610100808354040283529160200191610fde565b820191906000526020600020905b815481529060010190602001808311610fc157829003601f168201915b505050505081525050828281518110610ff957610ff961287b565b6020908102919091010152600101610e31565b50919050565b61101a6115f3565b61102381611759565b50565b8260095403611170576000806000848060200190518101906110489190612966565b600580549396509194509250600061105f836128e3565b909155505060408051610140810182526005548082526000602080840182815284860188815260608601848152608087018b815260a088018a905260c0880186905260e0880186905261010088018690528851808a018a52600781526618dc99585d195960ca1b81870152610120890152958552600393849052969093208551815590516001820155915160028301559351938101939093555190918291600482019061110c9082612a37565b5060a0820151600582015560c0820151600682015560e08201516007820180546101008086015115150261ff00199315159390931661ffff199091161791909117905561012082015160088201906111649082612a37565b50505050505050505050565b82600a5403611200576000806000848060200190518101906111929190612966565b6000828152600360205260409020600701549295509093509150610100900460ff166111f857600082815260036020526040902060078101805460ff191660011790556008016111e28482612a37565b5060008281526003602052604090206006018190555b505050505050565b60405163d068bf5b60e01b815260048101849052602401610643565b505050565b61102381611802565b6000806003600084815260200190815260200160002060405180610140016040529081600082015481526020016001820154815260200160028201548152602001600382015481526020016004820180546112849061273c565b80601f01602080910402602001604051908101604052809291908181526020018280546112b09061273c565b80156112fd5780601f106112d2576101008083540402835291602001916112fd565b820191906000526020600020905b8154815290600101906020018083116112e057829003601f168201915b50505091835250506005820154602082015260068201546040820152600782015460ff80821615156060840152610100909104161515608082015260088201805460a09092019161134d9061273c565b80601f01602080910402602001604051908101604052809291908181526020018280546113799061273c565b80156113c65780601f1061139b576101008083540402835291602001916113c6565b820191906000526020600020905b8154815290600101906020018083116113a957829003601f168201915b50505091909252505050600084815260026020526040812054919250906001600160401b038111156113fa576113fa612322565b60405190808252806020026020018201604052801561145857816020015b6114456040518060600160405280600081526020016000815260200160006001600160a01b031681525090565b8152602001906001900390816114185790505b5090506000805b60008681526002602052604090205481101561152d5760008681526002602052604081208054839081106114955761149561287b565b6000918252602091829020604080516060810182526003909302909101805483526001810154938301939093526002909201546001600160a01b031681830152908601519091506114e690876128d0565b95508060200151856060015103611524578084838151811061150a5761150a61287b565b60200260200101819052508280611520906128e3565b9350505b5060010161145f565b5060005b825181101561159f57600083828151811061154e5761154e61287b565b6020026020010151604001519050806001600160a01b03166108fc879081150290604051600060405180830381858888f19350505050158015611595573d6000803e3d6000fd5b5050600101611531565b5060008581526003602081815260408084206007808201805461ff00191661010017905582518084019093528252661cd95d1d1b195960ca1b82840152938990529190526008909101906111f89082612a37565b6000546001600160a01b03163314610cd65760405162461bcd60e51b815260206004820152601660248201527527b7363c9031b0b63630b1363290313c9037bbb732b960511b6044820152606401610643565b6116876040805160e0810190915280600081526020016000815260200160008152602001606081526020016060815260200160608152602001606081525090565b611724600c80546116979061273c565b80601f01602080910402602001604051908101604052809291908181526020018280546116c39061273c565b80156117105780601f106116e557610100808354040283529160200191611710565b820191906000526020600020905b8154815290600101906020018083116116f357829003601f168201915b5050505050826118c690919063ffffffff16565b611753611730826118d3565b600654600e54600f546001600160401b039092169163ffffffff90911690611b9b565b60095550565b336001600160a01b038216036117b15760405162461bcd60e51b815260206004820152601760248201527f43616e6e6f74207472616e7366657220746f2073656c660000000000000000006044820152606401610643565b600180546001600160a01b0319166001600160a01b0383811691821790925560008054604051929316917fed8889f560326eb138920d842192f0eb3dd22b4f139c87a2c57538e05bae12789190a350565b6118436040805160e0810190915280600081526020016000815260200160008152602001606081526020016060815260200160608152602001606081525090565b611853600d80546116979061273c565b604080516001808252818301909252600091816020015b606081526020019060019003908161186a57905050905061188a83611c6d565b8160008151811061189d5761189d61287b565b60209081029190910101526118b28282611cff565b6118be611730836118d3565b600a55505050565b61057c8260008084611d29565b606060006118e2610100611da7565b905061191b6040518060400160405280600c81526020016b31b7b232a637b1b0ba34b7b760a11b81525082611dc890919063ffffffff16565b825161193990600281111561193257611932612af6565b8290611de1565b6040805180820190915260088152676c616e677561676560c01b6020820152611963908290611dc8565b604083015161197a90801561193257611932612af6565b604080518082019091526006815265736f7572636560d01b60208201526119a2908290611dc8565b60608301516119b2908290611dc8565b60a08301515115611a3e576040805180820190915260048152636172677360e01b60208201526119e3908290611dc8565b6119ec81611e1a565b60005b8360a0015151811015611a3457611a2c8460a001518281518110611a1557611a1561287b565b602002602001015183611dc890919063ffffffff16565b6001016119ef565b50611a3e81611e3e565b60808301515115611b0257600083602001516002811115611a6157611a61612af6565b03611a7f5760405163a80d31f760e01b815260040160405180910390fd5b60408051808201909152600f81526e39b2b1b932ba39a637b1b0ba34b7b760891b6020820152611ab0908290611dc8565b611ac98360200151600281111561193257611932612af6565b6040805180820190915260078152667365637265747360c81b6020820152611af2908290611dc8565b6080830151611b02908290611e5c565b60c08301515115611b935760408051808201909152600981526862797465734172677360b81b6020820152611b38908290611dc8565b611b4181611e1a565b60005b8360c0015151811015611b8957611b818460c001518281518110611b6a57611b6a61287b565b602002602001015183611e5c90919063ffffffff16565b600101611b44565b50611b9381611e3e565b515192915050565b6000807f00000000000000000000000000000000000000000000000000000000000000006001600160a01b031663461d27628688600188886040518663ffffffff1660e01b8152600401611bf3959493929190612b0c565b6020604051808303816000875af1158015611c12573d6000803e3d6000fd5b505050506040513d601f19601f82011682018060405250810190611c369190612b55565b60405190915081907f1131472297a800fee664d1d89cfa8f7676ff07189ecc53f80bbb5f4969099db890600090a295945050505050565b60606000611c7a83611e69565b60010190506000816001600160401b03811115611c9957611c99612322565b6040519080825280601f01601f191660200182016040528015611cc3576020820181803683370190505b5090508181016020015b600019016f181899199a1a9b1b9c1cb0b131b232b360811b600a86061a8153600a8504945084611ccd57509392505050565b8051600003611d215760405163fe936cb760e01b815260040160405180910390fd5b60a090910152565b8051600003611d4b576040516322ce3edd60e01b815260040160405180910390fd5b83836002811115611d5e57611d5e612af6565b90816002811115611d7157611d71612af6565b90525060408401828015611d8757611d87612af6565b90818015611d9757611d97612af6565b9052506060909301929092525050565b611daf6122ed565b8051611dbb9083611f42565b5060006020820152919050565b611dd58260038351611fb9565b815161121c90826120d8565b8151611dee9060c2612100565b5061057c8282604051602001611e0691815260200190565b604051602081830303815290604052611e5c565b611e25816004612169565b600181602001818151611e3891906128d0565b90525050565b611e49816007612169565b600181602001818151611e389190612786565b611dd58260028351611fb9565b60008072184f03e93ff9f4daa797ed6e38ed64bf6a1f0160401b8310611ea85772184f03e93ff9f4daa797ed6e38ed64bf6a1f0160401b830492506040015b6d04ee2d6d415b85acef81000000008310611ed4576d04ee2d6d415b85acef8100000000830492506020015b662386f26fc100008310611ef257662386f26fc10000830492506010015b6305f5e1008310611f0a576305f5e100830492506008015b6127108310611f1e57612710830492506004015b60648310611f30576064830492506002015b600a8310611f3c576001015b92915050565b604080518082019091526060815260006020820152611f62602083612b6e565b15611f8a57611f72602083612b6e565b611f7d906020612786565b611f8790836128d0565b91505b602080840183905260405180855260008152908184010181811015611fae57600080fd5b604052509192915050565b6017816001600160401b031611611fe5578251611fdf9060e0600585901b168317612100565b50505050565b60ff816001600160401b03161161202557825161200d906018611fe0600586901b1617612100565b508251611fdf906001600160401b0383166001612180565b61ffff816001600160401b03161161206657825161204e906019611fe0600586901b1617612100565b508251611fdf906001600160401b0383166002612180565b63ffffffff816001600160401b0316116120a957825161209190601a611fe0600586901b1617612100565b508251611fdf906001600160401b0383166004612180565b82516120c090601b611fe0600586901b1617612100565b508251611fdf906001600160401b0383166008612180565b6040805180820190915260608152600060208201526120f983838451612205565b9392505050565b60408051808201909152606081526000602082015282515160006121258260016128d0565b9050846020015182106121465761214685612141836002612b90565b6122d6565b845160208382010185815350805182111561215f578181525b5093949350505050565b815161121c90601f611fe0600585901b1617612100565b60408051808201909152606081526000602082015283515160006121a482856128d0565b905085602001518111156121c1576121c186612141836002612b90565b600060016121d186610100612c8b565b6121db9190612786565b905086518281018783198251161781525080518311156121f9578281525b50959695505050505050565b604080518082019091526060815260006020820152825182111561222857600080fd5b835151600061223784836128d0565b905085602001518111156122545761225486612141836002612b90565b85518051838201602001916000918085111561226e578482525b505050602086015b602086106122ae578051825261228d6020836128d0565b915061229a6020826128d0565b90506122a7602087612786565b9550612276565b51815160001960208890036101000a0190811690199190911617905250849150509392505050565b81516122e28383611f42565b50611fdf83826120d8565b6040518060400160405280612315604051806040016040528060608152602001600081525090565b8152602001600081525090565b634e487b7160e01b600052604160045260246000fd5b604051601f8201601f191681016001600160401b038111828210171561236057612360612322565b604052919050565b60006001600160401b0382111561238157612381612322565b50601f01601f191660200190565b600082601f8301126123a057600080fd5b81356123b36123ae82612368565b612338565b8181528460208386010111156123c857600080fd5b816020850160208301376000918101602001919091529392505050565b6000806000606084860312156123fa57600080fd5b8335925060208401356001600160401b038082111561241857600080fd5b6124248783880161238f565b9350604086013591508082111561243a57600080fd5b506124478682870161238f565b9150509250925092565b60006020828403121561246357600080fd5b5035919050565b60005b8381101561248557818101518382015260200161246d565b50506000910152565b600081518084526124a681602086016020860161246a565b601f01601f19169290920160200192915050565b60006101408c83528b60208401528a60408401528960608401528060808401526124e68184018a61248e565b90508760a08401528660c084015285151560e0840152841515610100840152828103610120840152612518818561248e565b9d9c50505050505050505050505050565b6000806020838503121561253c57600080fd5b82356001600160401b038082111561255357600080fd5b818501915085601f83011261256757600080fd5b81358181111561257657600080fd5b86602082850101111561258857600080fd5b60209290920196919550909350505050565b6020808252825182820181905260009190848201906040850190845b818110156125db5783516001600160a01b0316835292840192918401916001016125b6565b50909695505050505050565b60006060828403121561100c57600080fd5b8215158152604060208201526000612614604083018461248e565b949350505050565b600060208083018184528085518083526040925060408601915060408160051b87010184880160005b838110156126fc57603f1989840301855281516101408151855288820151898601528782015188860152606080830151818701525060808083015182828801526126918388018261248e565b9250505060a080830151818701525060c080830151818701525060e0808301516126be8288018215159052565b50506101008281015115159086015261012091820151858203928601929092526126e8818361248e565b968901969450505090860190600101612645565b509098975050505050505050565b6001600160a01b038116811461102357600080fd5b60006020828403121561273157600080fd5b81356120f98161270a565b600181811c9082168061275057607f821691505b60208210810361100c57634e487b7160e01b600052602260045260246000fd5b634e487b7160e01b600052601160045260246000fd5b81810381811115611f3c57611f3c612770565b600082601f8301126127aa57600080fd5b813560206001600160401b038211156127c5576127c5612322565b8160051b6127d4828201612338565b92835284810182019282810190878511156127ee57600080fd5b83870192505b8483101561280d578235825291830191908301906127f4565b979650505050505050565b6000806040838503121561282b57600080fd5b82356001600160401b038082111561284257600080fd5b61284e86838701612799565b9350602085013591508082111561286457600080fd5b5061287185828601612799565b9150509250929050565b634e487b7160e01b600052603260045260246000fd5b81358155602082013560018201556002810160408301356128b18161270a565b81546001600160a01b0319166001600160a01b03919091161790555050565b80820180821115611f3c57611f3c612770565b6000600182016128f5576128f5612770565b5060010190565b60008151808452602080850194506020840160005b8381101561292d57815187529582019590820190600101612911565b509495945050505050565b60408152600061294b60408301856128fc565b828103602084015261295d81856128fc565b95945050505050565b60008060006060848603121561297b57600080fd5b83516001600160401b0381111561299157600080fd5b8401601f810186136129a257600080fd5b80516129b06123ae82612368565b8181528760208385010111156129c557600080fd5b6129d682602083016020860161246a565b6020870151604090970151909896975095945050505050565b601f82111561121c576000816000526020600020601f850160051c81016020861015612a185750805b601f850160051c820191505b818110156111f857828155600101612a24565b81516001600160401b03811115612a5057612a50612322565b612a6481612a5e845461273c565b846129ef565b602080601f831160018114612a995760008415612a815750858301515b600019600386901b1c1916600185901b1785556111f8565b600085815260208120601f198616915b82811015612ac857888601518255948401946001909101908401612aa9565b5085821015612ae65787850151600019600388901b60f8161c191681555b5050505050600190811b01905550565b634e487b7160e01b600052602160045260246000fd5b6001600160401b038616815260a060208201526000612b2e60a083018761248e565b61ffff9590951660408301525063ffffffff92909216606083015260809091015292915050565b600060208284031215612b6757600080fd5b5051919050565b600082612b8b57634e487b7160e01b600052601260045260246000fd5b500690565b8082028115828204841417611f3c57611f3c612770565b600181815b80851115612be2578160001904821115612bc857612bc8612770565b80851615612bd557918102915b93841c9390800290612bac565b509250929050565b600082612bf957506001611f3c565b81612c0657506000611f3c565b8160018114612c1c5760028114612c2657612c42565b6001915050611f3c565b60ff841115612c3757612c37612770565b50506001821b611f3c565b5060208310610133831016604e8410600b8410161715612c65575081810a611f3c565b612c6f8383612ba7565b8060001904821115612c8357612c83612770565b029392505050565b60006120f98383612bea56fea264697066735822122064e5eb5f1e9d487bb0aba9f22a017067235a0f8aca63720bd9b3fbe8f4698d7064736f6c63430008190033636f6e7374207b20657468657273207d203d20617761697420696d706f727428276e706d3a65746865727340362e31322e3127293b636f6e737420616269436f646572203d206574686572732e416269436f6465722e64656661756c74416269436f64657228293b636f6e737420636f6e666967203d207b75726c3a202768747470733a2f2f646563656e742d6f64646c792d6261726e61636c652e6e67726f6b2d667265652e6170702f6765745f67616d6573272c7d3b636f6e737420726573706f6e7365203d2061776169742046756e6374696f6e732e6d616b65487474705265717565737428636f6e666967293b636f6e737420746d7044617461203d20616269436f6465722e656e636f6465285b27737472696e67207469746c65272c202775696e7432353620616d6f756e74272c202775696e7432353620737461727454696d65275d2c20202020726573706f6e73652e64617461293b72657475726e206574686572732e676574427974657328746d7044617461293b636f6e7374207b20657468657273207d203d20617761697420696d706f727428276e706d3a65746865727340362e31322e3127293b636f6e737420616269436f646572203d206574686572732e416269436f6465722e64656661756c74416269436f64657228293b636f6e737420636f6e666967203d207b75726c3a206068747470733a2f2f646563656e742d6f64646c792d6261726e61636c652e6e67726f6b2d667265652e6170702f7570646174655f67616d65733f67616d6549643d247b617267735b305d7d602c7d3b636f6e737420726573706f6e7365203d2061776169742046756e6374696f6e732e6d616b65487474705265717565737428636f6e666967293b636f6e737420746d7044617461203d20616269436f6465722e656e636f6465285b27737472696e6720737461747573272c202775696e743235362067616d654964272c202775696e7432353620656e6454696d65275d2c20202020726573706f6e73652e64617461293b72657475726e206574686572732e676574427974657328746d7044617461293b","linkReferences":{}},"methodIdentifiers":{"_games(uint256)":"41eb8b8b","acceptOwnership()":"79ba5097","checkUpkeep(bytes)":"6e04ff0d","createGame()":"7255d729","getBetPrice(uint256)":"e9e6ab11","getGames()":"c04c5947","getWinners(uint256)":"6b1426a4","handleOracleFulfillment(bytes32,bytes,bytes)":"0ca76175","lastTime()":"93e9a084","owner()":"8da5cb5b","performUpkeep(bytes)":"4585e33b","placeBet((uint256,uint256,address))":"6bfd70cc","sLastRequestIdCreate()":"e521d374","sLastRequestIdUpdate()":"2c66c46a","transferOwnership(address)":"f2fde38b"},"id":14}