{"abi":[{"type":"constructor","inputs":[],"stateMutability":"nonpayable"},{"type":"function","name":"acceptOwnership","inputs":[],"outputs":[],"stateMutability":"nonpayable"},{"type":"function","name":"owner","inputs":[],"outputs":[{"name":"","type":"address","internalType":"address"}],"stateMutability":"view"},{"type":"function","name":"paymentDisburse","inputs":[{"name":"bets","type":"tuple[]","internalType":"struct PaymentDisburse.Bet[]","components":[{"name":"gameId","type":"uint256","internalType":"uint256"},{"name":"team","type":"uint256","internalType":"uint256"},{"name":"user","type":"address","internalType":"address"}]},{"name":"game","type":"tuple","internalType":"struct PaymentDisburse.Game","components":[{"name":"id","type":"uint256","internalType":"uint256"},{"name":"bets","type":"uint256","internalType":"uint256"},{"name":"amount","type":"uint256","internalType":"uint256"},{"name":"winnerTeam","type":"uint256","internalType":"uint256"},{"name":"title","type":"string","internalType":"string"},{"name":"status","type":"string","internalType":"string"}]}],"outputs":[],"stateMutability":"nonpayable"},{"type":"function","name":"setSportContract","inputs":[{"name":"_sport","type":"address","internalType":"address"}],"outputs":[],"stateMutability":"nonpayable"},{"type":"function","name":"transferOwnership","inputs":[{"name":"to","type":"address","internalType":"address"}],"outputs":[],"stateMutability":"nonpayable"},{"type":"event","name":"GameSettle","inputs":[{"name":"","type":"uint256","indexed":false,"internalType":"uint256"}],"anonymous":false},{"type":"event","name":"OwnershipTransferRequested","inputs":[{"name":"from","type":"address","indexed":true,"internalType":"address"},{"name":"to","type":"address","indexed":true,"internalType":"address"}],"anonymous":false},{"type":"event","name":"OwnershipTransferred","inputs":[{"name":"from","type":"address","indexed":true,"internalType":"address"},{"name":"to","type":"address","indexed":true,"internalType":"address"}],"anonymous":false}],"bytecode":{"object":"0x608060405234801561001057600080fd5b5033806000816100675760405162461bcd60e51b815260206004820152601860248201527f43616e6e6f7420736574206f776e657220746f207a65726f000000000000000060448201526064015b60405180910390fd5b600080546001600160a01b0319166001600160a01b0384811691909117909155811615610097576100978161009f565b505050610148565b336001600160a01b038216036100f75760405162461bcd60e51b815260206004820152601760248201527f43616e6e6f74207472616e7366657220746f2073656c66000000000000000000604482015260640161005e565b600180546001600160a01b0319166001600160a01b0383811691821790925560008054604051929316917fed8889f560326eb138920d842192f0eb3dd22b4f139c87a2c57538e05bae12789190a350565b610649806101576000396000f3fe608060405234801561001057600080fd5b50600436106100575760003560e01c806331145d7f1461005c5780635c0cd2441461007157806379ba5097146100845780638da5cb5b1461008c578063f2fde38b146100ab575b600080fd5b61006f61006a366004610358565b6100be565b005b61006f61007f366004610514565b6100e8565b61006f610180565b600054604080516001600160a01b039092168252519081900360200190f35b61006f6100b9366004610358565b61022a565b6100c661023e565b600280546001600160a01b0319166001600160a01b0392909216919091179055565b6002546001600160a01b031633146101475760405162461bcd60e51b815260206004820152601f60248201527f5061796d656e7444697362757273653a20496e76616c69642063616c6c65720060448201526064015b60405180910390fd5b80516040519081527f30bdfd3a5d0da4a2887d697f16f113da53cc0d3b8207002e6904fe688f8d85a89060200160405180910390a15050565b6001546001600160a01b031633146101d35760405162461bcd60e51b815260206004820152601660248201527526bab9ba10313290383937b837b9b2b21037bbb732b960511b604482015260640161013e565b60008054336001600160a01b0319808316821784556001805490911690556040516001600160a01b0390921692909183917f8be0079c531659141344cd1fd0a4f28419497f9722a3daafe3b4186f6b6457e091a350565b61023261023e565b61023b81610293565b50565b6000546001600160a01b031633146102915760405162461bcd60e51b815260206004820152601660248201527527b7363c9031b0b63630b1363290313c9037bbb732b960511b604482015260640161013e565b565b336001600160a01b038216036102eb5760405162461bcd60e51b815260206004820152601760248201527f43616e6e6f74207472616e7366657220746f2073656c66000000000000000000604482015260640161013e565b600180546001600160a01b0319166001600160a01b0383811691821790925560008054604051929316917fed8889f560326eb138920d842192f0eb3dd22b4f139c87a2c57538e05bae12789190a350565b80356001600160a01b038116811461035357600080fd5b919050565b60006020828403121561036a57600080fd5b6103738261033c565b9392505050565b634e487b7160e01b600052604160045260246000fd5b60405160c0810167ffffffffffffffff811182821017156103b3576103b361037a565b60405290565b6040516060810167ffffffffffffffff811182821017156103b3576103b361037a565b604051601f8201601f1916810167ffffffffffffffff811182821017156104055761040561037a565b604052919050565b600082601f83011261041e57600080fd5b813567ffffffffffffffff8111156104385761043861037a565b61044b601f8201601f19166020016103dc565b81815284602083860101111561046057600080fd5b816020850160208301376000918101602001919091529392505050565b600060c0828403121561048f57600080fd5b610497610390565b905081358152602082013560208201526040820135604082015260608201356060820152608082013567ffffffffffffffff808211156104d657600080fd5b6104e28583860161040d565b608084015260a08401359150808211156104fb57600080fd5b506105088482850161040d565b60a08301525092915050565b600080604080848603121561052857600080fd5b833567ffffffffffffffff8082111561054057600080fd5b818601915086601f83011261055457600080fd5b81356020828211156105685761056861037a565b610576818360051b016103dc565b8281526060928302850182019282820191908b85111561059557600080fd5b958301955b848710156105e45780878d0312156105b25760008081fd5b6105ba6103b9565b8735815284880135858201526105d189890161033c565b818a01528352958601959183019161059a565b50975050870135935050808311156105fb57600080fd5b50506106098582860161047d565b915050925092905056fea264697066735822122011b1ad993e7f84609f21b6a254040cdcb7a6fa10b84d6616986dfd705e0524f064736f6c63430008190033","linkReferences":{}},"methodIdentifiers":{"acceptOwnership()":"79ba5097","owner()":"8da5cb5b","paymentDisburse((uint256,uint256,address)[],(uint256,uint256,uint256,uint256,string,string))":"5c0cd244","setSportContract(address)":"31145d7f","transferOwnership(address)":"f2fde38b"},"id":11}